{
    "abi": [
        {
            "type": "constructor",
            "inputs": [
                {
                    "name": "minimumWager",
                    "type": "uint256",
                    "internalType": "uint256"
                },
                {
                    "name": "vrfCoordinatorAddress",
                    "type": "address",
                    "internalType": "address"
                },
                {
                    "name": "subscriptionId",
                    "type": "uint256",
                    "internalType": "uint256"
                },
                {
                    "name": "gasLane",
                    "type": "bytes32",
                    "internalType": "bytes32"
                },
                {
                    "name": "callbackGasLimit",
                    "type": "uint32",
                    "internalType": "uint32"
                },
                {
                    "name": "numOfRequestConfirmations",
                    "type": "uint16",
                    "internalType": "uint16"
                }
            ],
            "stateMutability": "nonpayable"
        },
        {
            "type": "fallback",
            "stateMutability": "payable"
        },
        {
            "type": "receive",
            "stateMutability": "payable"
        },
        {
            "type": "function",
            "name": "acceptOwnership",
            "inputs": [],
            "outputs": [],
            "stateMutability": "nonpayable"
        },
        {
            "type": "function",
            "name": "bet",
            "inputs": [
                {
                    "name": "userChoice",
                    "type": "uint8",
                    "internalType": "uint8"
                }
            ],
            "outputs": [],
            "stateMutability": "payable"
        },
        {
            "type": "function",
            "name": "fund",
            "inputs": [],
            "outputs": [],
            "stateMutability": "payable"
        },
        {
            "type": "function",
            "name": "getPotentialPayoutForAddress",
            "inputs": [
                {
                    "name": "user",
                    "type": "address",
                    "internalType": "address"
                }
            ],
            "outputs": [
                {
                    "name": "",
                    "type": "uint256",
                    "internalType": "uint256"
                }
            ],
            "stateMutability": "view"
        },
        {
            "type": "function",
            "name": "getRecentCoinFlipResultByAddress",
            "inputs": [
                {
                    "name": "user",
                    "type": "address",
                    "internalType": "address"
                }
            ],
            "outputs": [
                {
                    "name": "",
                    "type": "tuple",
                    "internalType": "struct CoinFlip.CoinFlipRequest",
                    "components": [
                        {
                            "name": "requestId",
                            "type": "uint256",
                            "internalType": "uint256"
                        },
                        {
                            "name": "amount",
                            "type": "uint256",
                            "internalType": "uint256"
                        },
                        {
                            "name": "state",
                            "type": "uint8",
                            "internalType": "enum CoinFlip.State"
                        },
                        {
                            "name": "user",
                            "type": "address",
                            "internalType": "address"
                        },
                        {
                            "name": "choice",
                            "type": "uint8",
                            "internalType": "enum CoinFlip.Choice"
                        }
                    ]
                }
            ],
            "stateMutability": "view"
        },
        {
            "type": "function",
            "name": "getResultByRequestId",
            "inputs": [
                {
                    "name": "requestId",
                    "type": "uint256",
                    "internalType": "uint256"
                }
            ],
            "outputs": [
                {
                    "name": "",
                    "type": "tuple",
                    "internalType": "struct CoinFlip.CoinFlipRequest",
                    "components": [
                        {
                            "name": "requestId",
                            "type": "uint256",
                            "internalType": "uint256"
                        },
                        {
                            "name": "amount",
                            "type": "uint256",
                            "internalType": "uint256"
                        },
                        {
                            "name": "state",
                            "type": "uint8",
                            "internalType": "enum CoinFlip.State"
                        },
                        {
                            "name": "user",
                            "type": "address",
                            "internalType": "address"
                        },
                        {
                            "name": "choice",
                            "type": "uint8",
                            "internalType": "enum CoinFlip.Choice"
                        }
                    ]
                }
            ],
            "stateMutability": "view"
        },
        {
            "type": "function",
            "name": "getTotalPotentialPayout",
            "inputs": [],
            "outputs": [
                {
                    "name": "",
                    "type": "uint256",
                    "internalType": "uint256"
                }
            ],
            "stateMutability": "view"
        },
        {
            "type": "function",
            "name": "owner",
            "inputs": [],
            "outputs": [
                {
                    "name": "",
                    "type": "address",
                    "internalType": "address"
                }
            ],
            "stateMutability": "view"
        },
        {
            "type": "function",
            "name": "rawFulfillRandomWords",
            "inputs": [
                {
                    "name": "requestId",
                    "type": "uint256",
                    "internalType": "uint256"
                },
                {
                    "name": "randomWords",
                    "type": "uint256[]",
                    "internalType": "uint256[]"
                }
            ],
            "outputs": [],
            "stateMutability": "nonpayable"
        },
        {
            "type": "function",
            "name": "s_vrfCoordinator",
            "inputs": [],
            "outputs": [
                {
                    "name": "",
                    "type": "address",
                    "internalType": "contract IVRFCoordinatorV2Plus"
                }
            ],
            "stateMutability": "view"
        },
        {
            "type": "function",
            "name": "setCoordinator",
            "inputs": [
                {
                    "name": "_vrfCoordinator",
                    "type": "address",
                    "internalType": "address"
                }
            ],
            "outputs": [],
            "stateMutability": "nonpayable"
        },
        {
            "type": "function",
            "name": "transferOwnership",
            "inputs": [
                {
                    "name": "to",
                    "type": "address",
                    "internalType": "address"
                }
            ],
            "outputs": [],
            "stateMutability": "nonpayable"
        },
        {
            "type": "function",
            "name": "withdraw",
            "inputs": [
                {
                    "name": "amount",
                    "type": "uint256",
                    "internalType": "uint256"
                }
            ],
            "outputs": [],
            "stateMutability": "nonpayable"
        },
        {
            "type": "event",
            "name": "CoinFlip__ErrorLog",
            "inputs": [
                {
                    "name": "message",
                    "type": "string",
                    "indexed": false,
                    "internalType": "string"
                },
                {
                    "name": "requestId",
                    "type": "uint256",
                    "indexed": true,
                    "internalType": "uint256"
                }
            ],
            "anonymous": false
        },
        {
            "type": "event",
            "name": "CoinFlip__FlipLoss",
            "inputs": [
                {
                    "name": "player",
                    "type": "address",
                    "indexed": true,
                    "internalType": "address"
                },
                {
                    "name": "requestId",
                    "type": "uint256",
                    "indexed": true,
                    "internalType": "uint256"
                },
                {
                    "name": "amount",
                    "type": "uint256",
                    "indexed": false,
                    "internalType": "uint256"
                }
            ],
            "anonymous": false
        },
        {
            "type": "event",
            "name": "CoinFlip__FlipRequest",
            "inputs": [
                {
                    "name": "player",
                    "type": "address",
                    "indexed": true,
                    "internalType": "address"
                },
                {
                    "name": "requestId",
                    "type": "uint256",
                    "indexed": true,
                    "internalType": "uint256"
                },
                {
                    "name": "amount",
                    "type": "uint256",
                    "indexed": false,
                    "internalType": "uint256"
                },
                {
                    "name": "choice",
                    "type": "uint8",
                    "indexed": false,
                    "internalType": "enum CoinFlip.Choice"
                }
            ],
            "anonymous": false
        },
        {
            "type": "event",
            "name": "CoinFlip__FlipWin",
            "inputs": [
                {
                    "name": "player",
                    "type": "address",
                    "indexed": true,
                    "internalType": "address"
                },
                {
                    "name": "requestId",
                    "type": "uint256",
                    "indexed": true,
                    "internalType": "uint256"
                },
                {
                    "name": "amount",
                    "type": "uint256",
                    "indexed": false,
                    "internalType": "uint256"
                }
            ],
            "anonymous": false
        },
        {
            "type": "event",
            "name": "CoinFlip__Funded",
            "inputs": [
                {
                    "name": "funder",
                    "type": "address",
                    "indexed": true,
                    "internalType": "address"
                },
                {
                    "name": "amount",
                    "type": "uint256",
                    "indexed": true,
                    "internalType": "uint256"
                }
            ],
            "anonymous": false
        },
        {
            "type": "event",
            "name": "CoinFlip__PaymentFailed",
            "inputs": [
                {
                    "name": "user",
                    "type": "address",
                    "indexed": true,
                    "internalType": "address"
                },
                {
                    "name": "requestId",
                    "type": "uint256",
                    "indexed": true,
                    "internalType": "uint256"
                },
                {
                    "name": "amount",
                    "type": "uint256",
                    "indexed": true,
                    "internalType": "uint256"
                }
            ],
            "anonymous": false
        },
        {
            "type": "event",
            "name": "CoinFlip__Withdrawl",
            "inputs": [
                {
                    "name": "balance",
                    "type": "uint256",
                    "indexed": true,
                    "internalType": "uint256"
                },
                {
                    "name": "amount",
                    "type": "uint256",
                    "indexed": true,
                    "internalType": "uint256"
                }
            ],
            "anonymous": false
        },
        {
            "type": "event",
            "name": "CoordinatorSet",
            "inputs": [
                {
                    "name": "vrfCoordinator",
                    "type": "address",
                    "indexed": false,
                    "internalType": "address"
                }
            ],
            "anonymous": false
        },
        {
            "type": "event",
            "name": "OwnershipTransferRequested",
            "inputs": [
                {
                    "name": "from",
                    "type": "address",
                    "indexed": true,
                    "internalType": "address"
                },
                {
                    "name": "to",
                    "type": "address",
                    "indexed": true,
                    "internalType": "address"
                }
            ],
            "anonymous": false
        },
        {
            "type": "event",
            "name": "OwnershipTransferred",
            "inputs": [
                {
                    "name": "from",
                    "type": "address",
                    "indexed": true,
                    "internalType": "address"
                },
                {
                    "name": "to",
                    "type": "address",
                    "indexed": true,
                    "internalType": "address"
                }
            ],
            "anonymous": false
        },
        {
            "type": "error",
            "name": "CoinFlip__BetIsBelowMinimumAmount",
            "inputs": [
                {
                    "name": "player",
                    "type": "address",
                    "internalType": "address"
                },
                {
                    "name": "amount",
                    "type": "uint256",
                    "internalType": "uint256"
                }
            ]
        },
        {
            "type": "error",
            "name": "CoinFlip__ExistingBetIsInProgress",
            "inputs": [
                {
                    "name": "player",
                    "type": "address",
                    "internalType": "address"
                }
            ]
        },
        {
            "type": "error",
            "name": "CoinFlip__InsufficientFundsForPayout",
            "inputs": [
                {
                    "name": "player",
                    "type": "address",
                    "internalType": "address"
                },
                {
                    "name": "wageAmount",
                    "type": "uint256",
                    "internalType": "uint256"
                },
                {
                    "name": "balance",
                    "type": "uint256",
                    "internalType": "uint256"
                }
            ]
        },
        {
            "type": "error",
            "name": "CoinFlip__InsufficientFundsToWithdraw",
            "inputs": [
                {
                    "name": "amount",
                    "type": "uint256",
                    "internalType": "uint256"
                }
            ]
        },
        {
            "type": "error",
            "name": "CoinFlip__NoBetFoundForRequestId",
            "inputs": [
                {
                    "name": "requestId",
                    "type": "uint256",
                    "internalType": "uint256"
                }
            ]
        },
        {
            "type": "error",
            "name": "CoinFlip__PayoutFailed",
            "inputs": [
                {
                    "name": "player",
                    "type": "address",
                    "internalType": "address"
                },
                {
                    "name": "requestId",
                    "type": "uint256",
                    "internalType": "uint256"
                },
                {
                    "name": "amount",
                    "type": "uint256",
                    "internalType": "uint256"
                }
            ]
        },
        {
            "type": "error",
            "name": "OnlyCoordinatorCanFulfill",
            "inputs": [
                {
                    "name": "have",
                    "type": "address",
                    "internalType": "address"
                },
                {
                    "name": "want",
                    "type": "address",
                    "internalType": "address"
                }
            ]
        },
        {
            "type": "error",
            "name": "OnlyOwnerOrCoordinator",
            "inputs": [
                {
                    "name": "have",
                    "type": "address",
                    "internalType": "address"
                },
                {
                    "name": "owner",
                    "type": "address",
                    "internalType": "address"
                },
                {
                    "name": "coordinator",
                    "type": "address",
                    "internalType": "address"
                }
            ]
        },
        {
            "type": "error",
            "name": "ZeroAddress",
            "inputs": []
        }
    ],
    "bytecode": {
        "object": "0x61012060405234801561001157600080fd5b50604051611b09380380611b09833981016040819052610030916101e3565b8433806000816100875760405162461bcd60e51b815260206004820152601860248201527f43616e6e6f7420736574206f776e657220746f207a65726f000000000000000060448201526064015b60405180910390fd5b600080546001600160a01b0319166001600160a01b03848116919091179091558116156100b7576100b78161013a565b5050506001600160a01b0381166100e15760405163d92e233d60e01b815260040160405180910390fd5b600280546001600160a01b03199081166001600160a01b0393841617909155610100979097526003805490971695169490941790945560809190915263ffffffff90921660a05260c09190915261ffff1660e05261026a565b336001600160a01b038216036101925760405162461bcd60e51b815260206004820152601760248201527f43616e6e6f74207472616e7366657220746f2073656c66000000000000000000604482015260640161007e565b600180546001600160a01b0319166001600160a01b0383811691821790925560008054604051929316917fed8889f560326eb138920d842192f0eb3dd22b4f139c87a2c57538e05bae12789190a350565b60008060008060008060c087890312156101fc57600080fd5b865160208801519096506001600160a01b038116811461021b57600080fd5b809550506040870151935060608701519250608087015163ffffffff8116811461024457600080fd5b60a088015190925061ffff8116811461025c57600080fd5b809150509295509295509295565b60805160a05160c05160e0516101005161185b6102ae60003960006107ed01526000610a0c015260006109bc01526000610a37015260006109df015261185b6000f3fe6080604052600436106100bd5760003560e01c806396e5221711610079578063b60d428811610056578063b60d428814610218578063b9357b3b14610220578063d0821b0e14610240578063f2fde38b1461025357005b806396e52217146101b65780639995018c146101cb5780639eccacf6146101f857005b80631fe543e3146100c65780632e1a7d4d146100e65780633bcaeda71461010657806379ba50971461014f5780638da5cb5b146101645780638ea981171461019657005b366100c457005b005b3480156100d257600080fd5b506100c46100e13660046114b5565b610273565b3480156100f257600080fd5b506100c461010136600461157f565b6102c6565b34801561011257600080fd5b5061013c610121366004611598565b6001600160a01b031660009081526008602052604090205490565b6040519081526020015b60405180910390f35b34801561015b57600080fd5b506100c4610412565b34801561017057600080fd5b506000546001600160a01b03165b6040516001600160a01b039091168152602001610146565b3480156101a257600080fd5b506100c46101b1366004611598565b6104bc565b3480156101c257600080fd5b5060055461013c565b3480156101d757600080fd5b506101eb6101e636600461157f565b6105ae565b60405161014691906115f2565b34801561020457600080fd5b5060025461017e906001600160a01b031681565b6100c4610667565b34801561022c57600080fd5b506101eb61023b366004611598565b610744565b6100c461024e36600461164c565b6107a1565b34801561025f57600080fd5b506100c461026e366004611598565b610d42565b6002546001600160a01b031633146102b85760025460405163073e64fd60e21b81523360048201526001600160a01b0390911660248201526044015b60405180910390fd5b6102c28282610d56565b5050565b6102ce611361565b3360009081526004602052604090205460ff16156102fe5760405162461bcd60e51b81526004016102af9061166f565b336000908152600460205260409020805460ff19166001179055478181101561033d576040516326095d1760e21b8152600481018390526024016102af565b604051600090339084908381818185875af1925050503d806000811461037f576040519150601f19603f3d011682016040523d82523d6000602084013e610384565b606091505b50509050806103c95760405162461bcd60e51b815260206004820152601160248201527015da5d1a191c985dd85b0819985a5b1959607a1b60448201526064016102af565b604051839083907f2e7a4cac49b0acfaa6edba0420c36e452e5a018a3b647a30b547594202b969cd90600090a35050336000908152600460205260409020805460ff1916905550565b6001546001600160a01b031633146104655760405162461bcd60e51b815260206004820152601660248201527526bab9ba10313290383937b837b9b2b21037bbb732b960511b60448201526064016102af565b60008054336001600160a01b0319808316821784556001805490911690556040516001600160a01b0390921692909183917f8be0079c531659141344cd1fd0a4f28419497f9722a3daafe3b4186f6b6457e091a350565b6000546001600160a01b031633148015906104e257506002546001600160a01b03163314155b1561053357336104fa6000546001600160a01b031690565b60025460405163061db9c160e01b81526001600160a01b03938416600482015291831660248301529190911660448201526064016102af565b6001600160a01b03811661055a5760405163d92e233d60e01b815260040160405180910390fd5b600280546001600160a01b0319166001600160a01b0383169081179091556040519081527fd1a6a14209a385a964d036e404cb5cfb71f4000cdb03c9366292430787261be69060200160405180910390a150565b6105b661145f565b600082815260066020908152604091829020825160a08101845281548152600182015492810192909252600280820154929391929184019160ff1690811115610601576106016115c8565b6002811115610612576106126115c8565b8152600282015461010081046001600160a01b03166020830152604090910190600160a81b900460ff16600181111561064d5761064d6115c8565b600181111561065e5761065e6115c8565b90525092915050565b3360009081526004602052604090205460ff16156106975760405162461bcd60e51b81526004016102af9061166f565b336000908152600460205260409020805460ff19166001179055346106fe5760405162461bcd60e51b815260206004820152601b60248201527f43616e6e6f742066756e642077697468207a65726f206574686572000000000060448201526064016102af565b604051349033907fa559b618584694355d78380f142678c22fafa03a27d85f8d7e0406ea8aeb369990600090a3336000908152600460205260409020805460ff19169055565b61074c61145f565b6001600160a01b038216600090815260076020908152604091829020825160a08101845281548152600182015492810192909252600280820154929391929184019160ff1690811115610601576106016115c8565b3360009081526004602052604090205460ff16156107d15760405162461bcd60e51b81526004016102af9061166f565b336000908152600460205260409020805460ff191660011790557f00000000000000000000000000000000000000000000000000000000000000003410156108345760405163e5ab106560e01b81523360048201523460248201526044016102af565b336000908152600760209081526040808320815160a08101835281548152600182015493810193909352600280820154919284019160ff169081111561087c5761087c6115c8565b600281111561088d5761088d6115c8565b8152600282015461010081046001600160a01b03166020830152604090910190600160a81b900460ff1660018111156108c8576108c86115c8565b60018111156108d9576108d96115c8565b9052506020810151909150158015906109075750600081604001516002811115610905576109056115c8565b145b15610927576040516364bb63a960e11b81523360048201526024016102af565b600061093334476116b5565b9050346005548261094491906116b5565b1015610972576040516334b8324360e01b8152336004820152346024820152604481018290526064016102af565b600061097f3460026116ce565b3360009081526008602052604081208290556005805492935083929091906109a89084906116e5565b90915550506002546040805160c0810182527f000000000000000000000000000000000000000000000000000000000000000081527f000000000000000000000000000000000000000000000000000000000000000060208083019190915261ffff7f0000000000000000000000000000000000000000000000000000000000000000168284015263ffffffff7f00000000000000000000000000000000000000000000000000000000000000001660608301526001608083015282519081018352600080825260a08301919091529151634d8e1c2f60e11b815291926001600160a01b031691639b1c385e91610aa1916004016116f8565b6020604051808303816000875af1158015610ac0573d6000803e3d6000fd5b505050506040513d601f19601f82011682018060405250810190610ae49190611796565b905080337fcd1a2ace2d4d20c404739fb661c12614925d889b8cf76a7ee853b21bf9325d3034610b1560028a6117c5565b60ff166001811115610b2957610b296115c8565b604051610b379291906117e7565b60405180910390a36040805160a0810182528281523460208201526000918101828152336020820152604001610b6e6002896117c5565b60ff166001811115610b8257610b826115c8565b6001811115610b9357610b936115c8565b81525090508060066000848152602001908152602001600020600082015181600001556020820151816001015560408201518160020160006101000a81548160ff02191690836002811115610bea57610bea6115c8565b021790555060608201516002820180546001600160a01b0390921661010002610100600160a81b031983168117825560808501519260ff60a81b19909116610100600160b01b031990911617600160a81b836001811115610c4d57610c4d6115c8565b02179055509050508060076000336001600160a01b03166001600160a01b03168152602001908152602001600020600082015181600001556020820151816001015560408201518160020160006101000a81548160ff02191690836002811115610cb957610cb96115c8565b021790555060608201516002820180546001600160a01b0390921661010002610100600160a81b031983168117825560808501519260ff60a81b19909116610100600160b01b031990911617600160a81b836001811115610d1c57610d1c6115c8565b021790555050336000908152600460205260409020805460ff1916905550505050505050565b610d4a611361565b610d53816113b6565b50565b6000600282600081518110610d6d57610d6d6117fb565b6020026020010151610d7f9190611811565b6001811115610d9057610d906115c8565b90506000600660008581526020019081526020016000206040518060a001604052908160008201548152602001600182015481526020016002820160009054906101000a900460ff166002811115610dea57610dea6115c8565b6002811115610dfb57610dfb6115c8565b8152600282015461010081046001600160a01b03166020830152604090910190600160a81b900460ff166001811115610e3657610e366115c8565b6001811115610e4757610e476115c8565b8152505090508060200151600003610ebe57837f4157d129df4d0ab547e286702e1ed7b0e794d1125186f5ec5391af54478a0cfd604051610eb090602080825260149082015273496e76616c69642072657175657374206461746160601b604082015260600190565b60405180910390a250505050565b600081602001516002610ed191906116ce565b90508060056000828254610ee591906116b5565b909155505060608201516001600160a01b0316600090815260086020526040812055826001811115610f1957610f196115c8565b82608001516001811115610f2f57610f2f6115c8565b03611193576001604083810182815260008881526006602090815292902085518155918501518284015551600280830180548795919260ff1990911691908490811115610f7e57610f7e6115c8565b021790555060608201516002820180546001600160a01b0390921661010002610100600160a81b031983168117825560808501519260ff60a81b19909116610100600160b01b031990911617600160a81b836001811115610fe157610fe16115c8565b0217905550505060608201516001600160a01b0316600090815260076020908152604091829020845181559084015160018083019190915591840151600280830180548795919260ff1990911691908490811115611041576110416115c8565b021790555060608201516002820180546001600160a01b0390921661010002610100600160a81b031983168117825560808501519260ff60a81b19909116610100600160b01b031990911617600160a81b8360018111156110a4576110a46115c8565b0217905550505060608201516040516000916001600160a01b03169083908381818185875af1925050503d80600081146110fa576040519150601f19603f3d011682016040523d82523d6000602084013e6110ff565b606091505b505090508061114557818684606001516001600160a01b03167fe02e9a0c7bdbe73f9359a166a81616de5a13b97da98b8620870415ee67d5993c60405160405180910390a45b8583606001516001600160a01b03167fc57938e16f953ce4b6bb2de12237f1c51172c5c151aa4520f1c32d0406fb7dd68460405161118591815260200190565b60405180910390a35061135a565b6002604083810182815260008881526006602090815292902085518155918501516001808401919091559051828401805487959293919260ff19909116919084908111156111e3576111e36115c8565b021790555060608201516002820180546001600160a01b0390921661010002610100600160a81b031983168117825560808501519260ff60a81b19909116610100600160b01b031990911617600160a81b836001811115611246576112466115c8565b0217905550505060608201516001600160a01b0316600090815260076020908152604091829020845181559084015160018083019190915591840151600280830180548795919260ff19909116919084908111156112a6576112a66115c8565b021790555060608201516002820180546001600160a01b0390921661010002610100600160a81b031983168117825560808501519260ff60a81b19909116610100600160b01b031990911617600160a81b836001811115611309576113096115c8565b02179055509050508482606001516001600160a01b03167f7bfdcf862d0d76c9b21f7f4458652336ea04e909cf1e6f0aff5566dc0705a1858360405161135191815260200190565b60405180910390a35b5050505050565b6000546001600160a01b031633146113b45760405162461bcd60e51b815260206004820152601660248201527527b7363c9031b0b63630b1363290313c9037bbb732b960511b60448201526064016102af565b565b336001600160a01b0382160361140e5760405162461bcd60e51b815260206004820152601760248201527f43616e6e6f74207472616e7366657220746f2073656c6600000000000000000060448201526064016102af565b600180546001600160a01b0319166001600160a01b0383811691821790925560008054604051929316917fed8889f560326eb138920d842192f0eb3dd22b4f139c87a2c57538e05bae12789190a350565b6040518060a0016040528060008152602001600081526020016000600281111561148b5761148b6115c8565b815260006020820181905260409091015290565b634e487b7160e01b600052604160045260246000fd5b600080604083850312156114c857600080fd5b8235915060208084013567ffffffffffffffff808211156114e857600080fd5b818601915086601f8301126114fc57600080fd5b81358181111561150e5761150e61149f565b8060051b604051601f19603f830116810181811085821117156115335761153361149f565b60405291825284820192508381018501918983111561155157600080fd5b938501935b8285101561156f57843584529385019392850192611556565b8096505050505050509250929050565b60006020828403121561159157600080fd5b5035919050565b6000602082840312156115aa57600080fd5b81356001600160a01b03811681146115c157600080fd5b9392505050565b634e487b7160e01b600052602160045260246000fd5b600281106115ee576115ee6115c8565b9052565b8151815260208083015190820152604082015160a08201906003811061161a5761161a6115c8565b60408301526060838101516001600160a01b03169083015260808084015190611645908401826115de565b5092915050565b60006020828403121561165e57600080fd5b813560ff811681146115c157600080fd5b6020808252601690820152751499515b9d1c985b98de481b9bdd08185b1b1bddd95960521b604082015260600190565b634e487b7160e01b600052601160045260246000fd5b818103818111156116c8576116c861169f565b92915050565b80820281158282048414176116c8576116c861169f565b808201808211156116c8576116c861169f565b60006020808352835160208401526020840151604084015261ffff6040850151166060840152606084015163ffffffff80821660808601528060808701511660a0860152505060a084015160c08085015280518060e086015260005b818110156117715782810184015186820161010001528301611754565b506101009250600083828701015282601f19601f830116860101935050505092915050565b6000602082840312156117a857600080fd5b5051919050565b634e487b7160e01b600052601260045260246000fd5b600060ff8316806117d8576117d86117af565b8060ff84160691505092915050565b828152604081016115c160208301846115de565b634e487b7160e01b600052603260045260246000fd5b600082611820576118206117af565b50069056fea26469706673582212203ebe1cd690066d52f14455cee723c13b797795b1b47f41b306b43c80d0461c0e64736f6c63430008190033",
        "linkReferences": {}
    },
    "methodIdentifiers": {
        "acceptOwnership()": "79ba5097",
        "bet(uint8)": "d0821b0e",
        "fund()": "b60d4288",
        "getPotentialPayoutForAddress(address)": "3bcaeda7",
        "getRecentCoinFlipResultByAddress(address)": "b9357b3b",
        "getResultByRequestId(uint256)": "9995018c",
        "getTotalPotentialPayout()": "96e52217",
        "owner()": "8da5cb5b",
        "rawFulfillRandomWords(uint256,uint256[])": "1fe543e3",
        "s_vrfCoordinator()": "9eccacf6",
        "setCoordinator(address)": "8ea98117",
        "transferOwnership(address)": "f2fde38b",
        "withdraw(uint256)": "2e1a7d4d"
    },
    "id": 38
}